S01400005243436F6E74726F6C6C65722E7372656357
S11300000DC100002CC4000055C400007EC40000D3
S1130010A7C40000D0C40000F9C4000022C5000039
S11300204BC500001AC1000018C1000016C1000031
S113003014C1000012C1000010C100000EC1000074
S11300400CC100000AC1000008C1000006C1000084
S113005004C1000002C1000000C1000058C5000036
S1130060FCC00000FAC00000F8C00000F6C00000A8
S1130070F4C00000F2C00000F0C00000EEC00000B8
S1130080ECC00000EAC00000E8C00000E6C00000C8
S1130090E4C00000E2C00000E0C00000DEC00000D8
S11300A0DCC00000DAC00000D8C00000D6C00000E8
S11300B0D4C00000D2C00000D0C00000CEC00000F8
S11300C0CCC00000CAC00000C8C00000C6C0000008
S11300D0C4C00000C2C00000C0C00000BEC0000018
S11300E0BCC000000904D303DB03E703F4031504D5
S11300F02204B606B906A806AC06B206F006BD068A
S1130100C106C706CB06CF06D506D906DD06F0061E
S1130110E306E706EB0600000A0B02090C0D0E08C5
S113012007030401000000000000000000000000BC
S113013000000000000000000000000000000000BB
S11301400000121110000000000000000000000078
S11301500000000000000000000000000102102068
S113016020080810204010204080020102010804E9
S1130170020101020408102040808040201008047D
S113018002018004020180402010080402010804D6
S1130190020101020408102040800102040810201A
S11301A04080050505050705080808080202020243
S11301B00A0A0808040404040101010101010101FF
S11301C00303030303030303040707070C0C0C0CCA
S11301D00C0C0C0C020202020606060606060606B3
S11301E00B0B0B0B0B0B0B0B000022002500280044
S11301F02B002E003100340002010000050108012B
S11302000B0100002100240027002A002D003000EB
S1130210330001010000040107010A0111241FBE7B
S1130220CFEFD1E2DEBFCDBF00E00CBF12E0A0E013
S1130230B2E0EAE7F1E100E00BBF02C007900D92E3
S1130240A436B107D9F722E0A4E6B2E001C01D92BA
S1130250A737B207E1F743D28EC7D2CE0895EF9203
S11302600F93CF93DF93EC01E6E0F2E0F983E883A8
S113027081E08083E881F98182E0818388E090E0F5
S113028059D6FC019B838A8385E390E09183808324
S113029081E390E09383828383E390E09583848376
S11302A061E085E39ED5EA81FB8161E0828199D595
S11302B0EA81FB8161E0848194D5E881F98161E080
S11302C081818FD5E881F98143E050E06EE271E0ED
S11302D0818152D287E0E82E06E025E044E069E01F
S11302E088E0D0D19D838C8342E060E1EED140E090
S11302F060E08C819D81ECD16CE272E08C819D8107
S1130300E8D141E060E08C819D81E2D16AE372E052
S11303108C819D81DED160ED77E080E090E066D451
S11303208C819D81D4D140E060E08C819D81D0D1CD
S113033063E472E08C819D81CCD18A819B8125D03C
S11303408C819D81C4D163E572E08C819D81DF91B4
S1130350CF910F91EF90BDC11F93CF93DF93EC0129
S1130360162F60E08C8179D5212F41E06A81888144
S1130370A2D561E08C81DF91CF911F916EC5FC0104
S11303801782168260E070E0E7CFCF93DF93EC0131
S113039081E090E09F838E836E817F81CE016138FE
S11303A071055CF4D9DF68EC70E080E090E01ED465
S11303B08E819F81880F991FEDCFDF91CF91DFCF81
S11303C0CF93DF93EC0160E08E8147D581E090E02C
S11303D046D461E08E8141D581E090E040D460E074
S11303E08E813BD584E690E0DF91CF9138C4CF92E3
S11303F0DF92EF92FF920F931F93CF93DF936C01E1
S11304007C0187E0E80EF11CC0E0D0E0062F10E08C
S1130410B8010C2E02C0759567950A94E2F76170D5
S1130420F70181917F0119D52196C430D10581F757
S1130430C601DF91CF911F910F91FF90EF90DF9054
S1130440CF90BECFCF92DF92EF92FF920F931F9384
S1130450CF93DF936C017C0187E0E80EF11CC0E0D0
S1130460D0E0062F10E0B8010C2E02C075956795F8
S11304700A94E2F76170F70181917F01EED421962D
S1130480C830D10581F7C601DF91CF911F910F913B
S1130490FF90EF90DF90CF9093CF1F93CF93DF9394
S11304A0EC01162F642F8C81D8D48D818F3F11F0ED
S11304B060E0D3D48F85612F84FF05C0CE01DF9126
S11304C0CF911F91BFCF70E084E0759567958A95B1
S11304D0E1F7CE018CDF612FCE01DF91CF911F9127
S11304E086CF40E0DACF61E0FCDF80ED97E0B7C370
S11304F0FC01443008F043E08389481710F04FEFC3
S1130500480FDF01A40FB11D54969C91690F6068D8
S1130510CF01E7CFFC016089262F2460208B6C601B
S1130520E0CFEF92FF920F931F93CF93DF93EC01F1
S1130530423018F08F8588608F874B8B1C8A80E44B
S11305408D8B6E8B70E0605C7F4F6F8B222329F064
S1130550413019F48F8584608F8761E08C8141D4A8
S11305608D818F3F11F061E03CD461E08E8139D4FC
S11305707E0187E0E80EF11C00E010E08F8584FD29
S113058003C084E090E002C088E090E008171907F7
S113059044F461E0F70181917F0123D40F5F1F4F81
S11305A0EDCF80E593EC5BD360E08C8156D460E0C2
S11305B08E8153D48D818F3F11F060E04ED46F85CE
S11305C064FD16C063E0CE0112DF84E991E147D3F4
S11305D063E0CE010CDF84E991E141D363E0CE0115
S11305E006DF86E990E03BD362E0CE0100DF11C074
S11305F06062CE0176DF84E991E131D36F85606278
S1130600CE016FDF86E990E02AD36F856062CE0168
S113061068DF6F856062CE0164DF84E0888BCE0181
S113062079DFCE0160DF82E0898B66E0CE01DF9165
S1130630CF911F910F91FF90EF9053CFCF92EF92F4
S11306400F93FC01138212828FE592E091838083E1
S113065064838FEF8583468327830087E186C28680
S11306601386148615861686178620E041E060E11D
S1130670CF010F91EF90CF9054CF41E00EDF81E096
S113068090E00895BF92CF92DF92EF92FF920F9382
S11306901F93CF93DF93182FF62ED42EB22E88E11A
S11306A090E028D0EC01CE2CE02E0B2D2D2D4F2DDB
S11306B0612FC4DFCE01DF91CF911F910F91FF9085
S11306C0EF90DF90CF90BF90089520E02ACF0BCF1A
S11306D00FCF50C08DE692E0C2CD08950895CAD2DE
S11306E0FDDFF8DFC0E0D0E0F8DF2097E9F30E94F7
S11306F00000FACF1FC4CF92DF92EF92FF920F93C4
S11307001F93CF93DF936C017A018B01C0E0D0E09B
S1130710CE15DF0581F0D8016D918D01D601ED91E3
S1130720FC910190F081E02DC6011995892B11F0FF
S11307302196EECF7E01C701DF91CF911F910F91DA
S1130740FF90EF90DF90CF9008956115710579F0D7
S1130750FB0101900020E9F73197AF01461B570BCD
S1130760DC01ED91FC910280F381E02D199480E08D
S113077090E00895EACF0895883008F06FC0A82F5C
S1130780B0E0AA0FBB1FA45EBD4F11967C936E937D
S113079090E0FC013197E730F10598F58827EE5891
S11307A0FF4F8F4FBFC3809169008C7F482B4093CC
S11307B06900E89A089580916900837F440F551F6A
S11307C0440F551F482B40936900E99A089580917E
S11307D069008F7C74E0440F551F7A95E1F7482B2C
S11307E040936900EA9A0895809169008F7366E0E6
S11307F0440F551F6A95E1F7482B40936900EB9A23
S1130800089580916A008C7F482B40936A00EC9A8B
S1130810089580916A00837F440F551F440F551F2C
S1130820482B40936A00ED9A089580916A008F7C6A
S113083024E0440F551F2A95E1F7482B40936A00A2
S1130840EE9A089580916A008F7396E0440F551FC5
S11308509A95E1F7482B40936A00EF9A08951F9206
S11308600F920FB60F9211240BB60F922F933F9352
S11308704F935F936F937F938F939F93AF93BF93A4
S1130880EF93FF93E0912002F09121021995FF91DB
S1130890EF91BF91AF919F918F917F916F915F91F4
S11308A04F913F912F910F900BBE0F900FBE0F9061
S11308B01F9018951F920F920FB60F9211240BB62A
S11308C00F922F933F934F935F936F937F938F93E5
S11308D09F93AF93BF93EF93FF93E0912202F09124
S11308E023021995FF91EF91BF91AF919F918F9141
S11308F07F916F915F914F913F912F910F900BBE1C
S11309000F900FBE0F901F9018951F920F920FB665
S11309100F9211240BB60F922F933F934F935F9333
S11309206F937F938F939F93AF93BF93EF93FF93B3
S1130930E0912402F09125021995FF91EF91BF9166
S1130940AF919F918F917F916F915F914F913F9163
S11309502F910F900BBE0F900FBE0F901F90189504
S11309601F920F920FB60F9211240BB60F922F9372
S11309703F934F935F936F937F938F939F93AF9323
S1130980BF93EF93FF93E0912602F091270219950C
S1130990FF91EF91BF91AF919F918F917F916F9153
S11309A05F914F913F912F910F900BBE0F900FBE0F
S11309B00F901F9018951F920F920FB60F9211244B
S11309C00BB60F922F933F934F935F936F937F9345
S11309D08F939F93AF93BF93EF93FF93E0911C0288
S11309E0F0911D021995FF91EF91BF91AF919F91E5
S11309F08F917F916F915F914F913F912F910F90C4
S1130A000BBE0F900FBE0F901F9018951F920F9260
S1130A100FB60F9211240BB60F922F933F934F935F
S1130A205F936F937F938F939F93AF93BF93EF9352
S1130A30FF93E0911E02F0911F021995FF91EF912F
S1130A40BF91AF919F918F917F916F915F914F91E2
S1130A503F912F910F900BBE0F900FBE0F901F90E0
S1130A6018951F920F920FB60F9211240BB60F9286
S1130A702F933F934F935F936F937F938F939F93A2
S1130A80AF93BF93EF93FF93E0912802F091290273
S1130A901995FF91EF91BF91AF919F918F917F91A4
S1130AA06F915F914F913F912F910F900BBE0F90DB
S1130AB00FBE0F901F9018951F920F920FB60F92B2
S1130AC011240BB60F922F933F934F935F936F9321
S1130AD07F938F939F93AF93BF93EF93FF93E09193
S1130AE02A02F0912B021995FF91EF91BF91AF91DA
S1130AF09F918F917F916F915F914F913F912F9132
S1130B000F900BBE0F900FBE0F901F9018951F9261
S1130B100F920FB60F9211242F933F938F939F93AD
S1130B20AF93BF938091650290916602A091670292
S1130B30B09168023091640223E0230F2D3720F432
S1130B400196A11DB11D05C026E8230F0296A11D23
S1130B50B11D209364028093650290936602A09372
S1130B606702B09368028091690290916A02A09131
S1130B706B02B0916C020196A11DB11D80936902B4
S1130B8090936A02A0936B02B0936C02BF91AF91F1
S1130B909F918F913F912F910F900FBE0F901F90B7
S1130BA018953FB7F8948091690290916A02A091D8
S1130BB06B02B0916C0226B5A89B05C02F3F19F0BB
S1130BC00196A11DB11D3FBFBA2FA92F982F8827C9
S1130BD0820F911DA11DB11DBC01CD0142E0660F24
S1130BE0771F881F991F4A95D1F708958F929F9276
S1130BF0AF92BF92CF92DF92EF92FF926B017C0192
S1130C00D0DF4B015C01C114D104E104F104F1F023
S1130C1088D1C7DFDC01CB0188199909AA09BB096E
S1130C20883E9340A105B10570F321E0C21AD108B2
S1130C30E108F10888EE880E83E0981EA11CB11C1F
S1130C40C114D104E104F10421F7DDCFFF90EF904A
S1130C50DF90CF90BF90AF909F908F900895823097
S1130C60910538F0880F991F880F991F05970197F0
S1130C70F1F70895789484B5826084BD84B5816069
S1130C8084BD85B5826085BD85B5816085BDEEE690
S1130C90F0E0808181608083E1E8F0E0108280816F
S1130CA082608083808181608083E0E8F0E08081DD
S1130CB081608083E1EBF0E0808184608083E0EBFD
S1130CC0F0E0808181608083E1E9F0E080818260EE
S1130CD08083808181608083E0E9F0E080818160AD
S1130CE08083E1EAF0E0808182608083808181609A
S1130CF08083E0EAF0E0808181608083E1E2F1E0DA
S1130D00808182608083808181608083E0E2F1E081
S1130D10808181608083EAE7F0E080818460808361
S1130D20808182608083808181608083808180680B
S1130D3080831092C100089590E0FC013197E23164
S1130D40F10508F04DC08827E758FF4F8F4FEAC0E0
S1130D50809180008F7703C0809180008F7D809385
S1130D608000089580918000877FF9CF84B58F77C4
S1130D7002C084B58F7D84BD08958091B0008F77C3
S1130D8003C08091B0008F7D8093B000089580915E
S1130D9090008F7707C0809190008F7D03C0809171
S1130DA09000877F8093900008958091A0008F77B2
S1130DB007C08091A0008F7D03C08091A000877F31
S1130DC08093A0000895809120018F7707C08091BF
S1130DD020018F7D03C080912001877F80932001B3
S1130DE00895CF93DF9390E0FC01E45AFE4F2491E1
S1130DF0FC01EE55FE4F8491882361F190E0880F49
S1130E00991FFC01EE5FFD4FC591D491FC01E8519F
S1130E10FE4FA591B491611109C09FB7F8948881E0
S1130E20209582238883EC912E230BC0623061F4D9
S1130E309FB7F8948881322F309583238883EC916F
S1130E402E2B2C939FBF06C08FB7F894E8812E2BCE
S1130E5028838FBFDF91CF9108951F93CF93DF93A2
S1130E60282F30E0F901EA5EFE4F8491F901E45A3B
S1130E70FE4FD491F901EE55FE4FC491CC23B9F045
S1130E80162F811159DFEC2FF0E0EE0FFF1FE85110
S1130E90FE4FA591B4919FB7F894111104C08C91A1
S1130EA0D095D82302C0EC91DE2BDC939FBFDF9159
S1130EB0CF911F910895BF92CF92DF92EF92FF924C
S1130EC00F931F93CF93DF93C82ED62EB42EC7E073
S1130ED0D0E0022F10E087E0E82EF12CB11005C01D
S1130EE0C7018C1B9D0BB80102C0B8018C2F02C036
S1130EF0759567958A95E2F761708C2DAEDF61E098
S1130F008D2DABDF60E08D2DA8DF219738F7DF91C1
S1130F10CF911F910F91FF90EF90DF90CF90BF90F2
S1130F2008950895EE0FFF1F881F8BBF0790F69159
S1130F30E02D19940F931F93CF93DF938230910583
S1130F4010F482E090E0E0917502F091760220E0E6
S1130F5030E0A0E0B0E0309719F140815181028186
S1130F60138148175907C8F08417950769F4109737
S1130F7031F012960C93129713961C9327C000938A
S1130F8075021093760222C02115310519F042171B
S1130F90530718F49A01BD01EF01DF01F801DBCF1B
S1130FA021153105F9F0281B390B2430310580F463
S1130FB08A819B816115710521F0FB0193838283F2
S1130FC004C09093760280937502FE01329644C069
S1130FD0FE01E20FF31F819391932250310939836B
S1130FE028833AC02091730230917402232B41F478
S1130FF02091020230910302309374022093730211
S113100020910002309101022115310541F42DB7E0
S11310103EB74091040250910502241B350BE09128
S11310207302F0917402E217F307A0F42E1B3F0B36
S11310302817390778F0AC014E5F5F4F2417350746
S113104048F04E0F5F1F50937402409373028193D4
S1131050919302C0E0E0F0E0CF01DF91CF911F91C6
S11310600F910895CF93DF93009709F481C0FC0199
S1131070329713821282A0917502B0917602109772
S113108081F420813181820F931F2091730230916A
S113109074022817390751F5F0937402E093730230
S11310A067C0ED0120E030E0CE17DF0740F44A814D
S11310B05B819E0141155105F1F0EA01F5CFD3831F
S11310C0C28340815181840F951FC817D90759F4F1
S11310D088819981840F951F0296918380838A81E8
S11310E09B81938382832115310529F4F093760241
S11310F0E09375023DC0E901FB83EA83499159916C
S1131100C40FD51FEC17FD0761F480819181840F12
S1131110951F0296E90199838883828193819B8339
S11311208A83E0E0F0E012968D919C9113970097EA
S113113019F0FD01DC01F7CF8D919C9111979D0170
S11311402E5F3F4F820F931F2091730230917402E0
S11311502817390769F4309729F41092760210920F
S1131160750202C013821282B0937402A0937302B8
S10D1170DF91CF910895F894FFCFAA
S113117A0000770220000000B402BE02013E0348C8
S113118A03029A03A40303C903D30304BB03BB03E3
S113119ABB03BB03BB03BB03BB03BB0352432043D5
S11311AA6F6E74726F6C6C6572007665722E203184
S11311BA2E300054657374696E67204C4544732E4F
S11311CA2E2E0057454C434F4D4500000000003D6C
S10711DA037B03008C
S9030000FC
