:10000000F9C0000016C1000014C1000012C10000B8
:1000100010C100000EC100000CC100000AC10000A8
:1000200008C1000006C1000004C1000002C10000B8
:1000300000C10000FEC00000FCC00000FAC00000CB
:10004000F8C00000F6C00000F4C00000F2C00000DC
:10005000F0C00000EEC00000ECC0000051C1000084
:10006000E8C00000E6C00000E4C00000E2C00000FC
:10007000E0C00000DEC00000DCC00000DAC000000C
:10008000D8C00000D6C00000D4C00000D2C000001C
:10009000D0C00000CEC00000CCC00000CAC000002C
:1000A000C8C00000C6C00000C4C00000C2C000003C
:1000B000C0C00000BEC00000BCC00000BAC000004C
:1000C000B8C00000B6C00000B4C00000B2C000005C
:1000D000B0C00000AEC00000ACC00000AAC000006C
:1000E000A8C00000A402A70296029A02A002DE02A3
:1000F000AB02AF02B502B902BD02C302C702CB0216
:10010000DE02D102D502D90200000A0B02090C0D51
:100110000E080703040100000000000000000000BA
:1001200000000000000000000000000000000000CF
:10013000000000001211100000000000000000008C
:1001400000000000000000000000000000000102AC
:1001500010202008081020401020408002010201D9
:100160000804020101020408102040808040201091
:1001700008040201800402018040201008040201EA
:100180000804020101020408102040800102040852
:10019000102040800505050507050808080802022B
:1001A00002020A0A08080404040401010101010111
:1001B00001010303030303030303040707070C0CF4
:1001C0000C0C0C0C0C0C02020202060606060606BB
:1001D00006060B0B0B0B0B0B0B0B00002200250074
:1001E00028002B002E003100340002010000050120
:1001F00008010B0111241FBECFEFD1E2DEBFCDBF3E
:1002000000E00CBF12E0A0E0B2E0ECE9F6E000E0B4
:100210000BBF02C007900D92A631B107D9F722E0BB
:10022000A6E1B2E001C01D92A332B207E1F75DD0B2
:1002300033C2E6CECF93DF93EC01E0E0F2E0F98346
:10024000E88381E08083E881F98182E08183E8E0CE
:10025000F0E0FB83EA8385E390E09183808381E390
:1002600090E09383828383E390E09583848360EDC1
:1002700077E080E090E0B3D08A819B81DF91CF91DD
:1002800019C01F93CF93DF93EC01162F60E08C8190
:1002900096D1212F41E06A818881BFD161E08C81B4
:1002A000DF91CF911F918BC1FC011782168260E014
:1002B00070E0E7CFCF93DF93EC011F821E826E8147
:1002C0007F81CE016138710544F4DBDF8E819F812F
:1002D000880F991F9F838E83F2CFDF91CF91E4CF58
:1002E0008FE192E0A7CF08950895B2D0FDDFF8DF47
:1002F000C0E0D0E0F8DF2097E9F30E940000FACFD9
:100300001F920F920FB60F9211242F933F938F934A
:100310009F93AF93BF938091170290911802A09181
:100320001902B0911A023091160223E0230F2D37E3
:1003300020F40196A11DB11D05C026E8230F0296E9
:10034000A11DB11D209316028093170290931802ED
:10035000A0931902B0931A0280911B0290911C0283
:10036000A0911D02B0911E020196A11DB11D8093A6
:100370001B0290931C02A0931D02B0931E02BF911A
:10038000AF919F918F913F912F910F900FBE0F9042
:100390001F9018953FB7F89480911B0290911C0212
:1003A000A0911D02B0911E0226B5A89B05C02F3F4B
:1003B00019F00196A11DB11D3FBFBA2FA92F982F8B
:1003C0008827820F911DA11DB11DBC01CD0142E006
:1003D000660F771F881F991F4A95D1F708958F924E
:1003E0009F92AF92BF92CF92DF92EF92FF926B01FA
:1003F0007C01D0DF4B015C01C114D104E104F104A4
:10040000F1F041D1C7DFDC01CB0188199909AA09B4
:10041000BB09883E9340A105B10570F321E0C21AE3
:10042000D108E108F10888EE880E83E0981EA11C2F
:10043000B11CC114D104E104F10421F7DDCFFF9018
:10044000EF90DF90CF90BF90AF909F908F900895E6
:10045000789484B5826084BD84B5816084BD85B59F
:10046000826085BD85B5816085BDEEE6F0E0808166
:1004700081608083E1E8F0E0108280818260808387
:10048000808181608083E0E8F0E08081816080830A
:10049000E1EBF0E0808184608083E0EBF0E080813C
:1004A00081608083E1E9F0E08081826080838081E7
:1004B00081608083E0E9F0E0808181608083E1EA0F
:1004C000F0E0808182608083808181608083E0EAC7
:1004D000F0E0808181608083E1E2F1E080818260F0
:1004E0008083808181608083E0E2F1E080818160AF
:1004F0008083EAE7F0E0808184608083808182608D
:100500008083808181608083808180688083109275
:10051000C100089590E0FC013197E231F10508F047
:100520004DC08827EE58FF4F8F4FAEC0809180009E
:100530008F7703C0809180008F7D80938000089525
:1005400080918000877FF9CF84B58F7702C084B512
:100550008F7D84BD08958091B0008F7703C0809116
:10056000B0008F7D8093B0000895809190008F77C8
:1005700007C0809190008F7D03C080919000877F9D
:100580008093900008958091A0008F7707C080919C
:10059000A0008F7D03C08091A000877F8093A00082
:1005A0000895809120018F7707C0809120018F7D71
:1005B00003C080912001877F8093200108951F93BD
:1005C000CF93DF93282F30E0F901E85FFE4F84914D
:1005D000F901E25BFE4FD491F901EC56FE4FC49154
:1005E000CC23B9F0162F811195DFEC2FF0E0EE0F40
:1005F000FF1FE652FE4FA591B4919FB7F8941111D9
:1006000004C08C91D095D82302C0EC91DE2BDC93F2
:100610009FBFDF91CF911F910895BF92CF92DF923C
:10062000EF92FF920F931F93CF93DF93C82ED62E96
:10063000B42EC7E0D0E0022F10E087E0E82EF12CC6
:10064000B11005C0C7018C1B9D0BB80102C0B801D9
:100650008C2F02C0759567958A95E2F761708C2D95
:10066000AEDF61E08D2DABDF60E08D2DA8DF21973F
:1006700038F7DF91CF911F910F91FF90EF90DF90AE
:10068000CF90BF9008950895EE0FFF1F881F8BBF76
:0C0690000790F691E02D1994F894FFCF2C
:10069C000000B402BE02013E034803029A03A40305
:0606AC0003C903D303049F
:00000001FF
