:100000000EC10000EAC700000C9418080C944308C5
:100010000C946E080C9499080C94C4080C94EF0886
:100020000C941A092CC100002AC1000028C100004C
:1000300026C1000024C1000022C1000020C1000030
:100040001EC100001CC100001AC1000018C1000040
:1000500016C1000014C1000012C100000C94450933
:100060000EC1000052C6000086C6000008C1000094
:1000700006C1000004C1000002C1000000C1000070
:10008000FEC00000FCC00000FAC00000F8C0000084
:10009000F6C00000F4C00000F2C00000F0C0000094
:1000A000EEC00000ECC00000EAC00000E8C00000A4
:1000B000E6C00000E4C00000E2C00000E0C00000B4
:1000C000DEC00000DCC00000DAC00000D8C00000C4
:1000D000D6C00000D4C00000D2C00000D0C00000D4
:1000E000CEC00000C70791079907A507B207D3073D
:1000F000E007990A9C0A8B0A8F0A950AD30AA00A7C
:10010000A40AAA0AAE0AB20AB80ABC0AC00AD30AEA
:10011000C60ACA0ACE0A00000A0B02090C0D0E0814
:1001200007030401000000000000000000000000C0
:1001300000000000000000000000000000000000BF
:10014000000012111000000000000000000000007C
:10015000000000000000000000000000010210206C
:1001600020080810204010204080020102010804ED
:100170000201010204081020408080402010080481
:1001800002018004020180402010080402010804DA
:10019000020101020408102040800102040810201E
:1001A0004080050505050705080808080202020247
:1001B0000A0A080804040404010101010101010103
:1001C0000303030303030303040707070C0C0C0CCE
:1001D0000C0C0C0C020202020606060606060606B7
:1001E0000B0B0B0B0B0B0B0B000022002500280048
:1001F0002B002E003100340002010000050108012F
:100200000B0100002100240027002A002D003000EF
:10021000330001010000040107010A01ED06112469
:100220001FBECFEFD1E2DEBFCDBF00E00CBF12E0BA
:10023000A0E0B2E0E4E8F9E100E00BBF02C0079003
:100240000D92AC39B107D9F723E0ACE9B2E001C0B7
:100250001D92A435B207E1F711E0CFE0D1E000E054
:1002600006C021970109802FFE010E94970BCE3016
:10027000D10780E00807A9F7DED50C94C00CC0CEEA
:10028000EF92FF920F931F93CF93DF937C018B012B
:10029000EA0186E090E00E949F0BFC01F182E0827F
:1002A00013830283D583C483DF91CF911F910F9174
:1002B000FF90EF9008950895CF93DF9300D01F92A1
:1002C0001F92CDB7DEB7E0914203F09143038081E6
:1002D0000E945A0ABC01809142039091430378D353
:1002E000613061F480914403909145030F900F9029
:1002F0000F900F900F90DF91CF917FC10F900F90D3
:100300000F900F900F90DF91CF9108950895EF9285
:100310000F93CF93DF93EC0162E081E020D39983C8
:1003200088832FE230E043E350E061E370E085E34F
:1003300090E0C7D09D838C8345D19B838A8346E020
:1003400050E065E070E081E090E09ADF998788876F
:1003500044E050E067E070E081E090E091DF9B874F
:100360008A878FD09D878C8760E875E28DD06BE29D
:1003700072E08C859D858ED087E0E82E06E025E032
:1003800044E069E088E0BFD29F838E8342E060E171
:10039000DDD240E060E08E819F81DBD266E472E0D6
:1003A0008E819F81D7D241E060E08E819F81D1D242
:1003B00064E572E08E819F81CDD260ED77E080E0D0
:1003C00090E0D2D78E819F81C3D240E060E08E81E1
:1003D0009F81BFD28C819D81BCD0EC81FD8160E08A
:1003E00080850E94100B6DE572E08E819F81B2D2F4
:1003F0008C819D81B4D08E819F81AAD26DE672E0FE
:100400008E819F81A7D2E881F98160E081810E947D
:10041000D40AE885F98561E084810E94D40AEA85DE
:10042000FB8561E084810E94D40AE881F981918191
:10043000923049F0933049F08EEE890F843038F4D1
:1004400087E1891B05C080E003C081E001C08FEF18
:1004500043E050E06CE571E04DD5E885F98543E077
:1004600050E06BE571E0848145D5EA85FB8543E08A
:1004700050E066E871E08481DF91CF910F91EF90B9
:1004800039C58CE992E00895AB01770F660B770BC5
:1004900026E0D8C31EC51F93CF93DF93EC01162F20
:1004A00060E08C810E94100B212F41E06A818881DD
:1004B0000E943E0B61E08C81DF91CF911F910C94E3
:1004C000100BAF92BF92CF92DF92EF92FF920F93F9
:1004D0001F93CF93DF935C016B017A01122F032FDF
:1004E0008AE090E00E949F0BEC01B982A882DB8237
:1004F000CA82FD82EC821887098761E0812F0E9401
:10050000D40A61E088850E94100B61E08A810E9414
:10051000D40A61E088810E94D40A61E08C810E9443
:10052000D40A60E08A810E94100B60E088810E94FA
:10053000100B60E08C810E94100BCE01DF91CF91F7
:100540001F910F91FF90EF90DF90CF90BF90AF90F1
:100550000895FC011782168260E070E09CCFCF9373
:10056000DF93EC0181E090E09F838E836E817F8139
:10057000CE01613871055CF48EDF68EC70E080E0DC
:1005800090E0F2D68E819F81880F991FEDCFDF9189
:10059000CF91DFCF70E0FC01268137816223732386
:1005A0007783668378CF41E050E0662311F040E026
:1005B00050E0FC0126813781BA01622373237783DF
:1005C000668369CFCF93DF93EC0189E090E00E94CE
:1005D0009F0BFC01148281E0858384E0868380E1A7
:1005E000878380E48087CF01049693838283D183BD
:1005F000C083CF01DF91CF910895CF93DF93EC01BA
:10060000EA81FB81608188819981CDDF64E670E0B9
:1006100080E090E0A9D68A819B819E01285F3F4FB0
:100620008217930719F4CE01049601C001969B83AB
:100630008A83EA81FB81608188819981DF91CF91F2
:10064000A9CFCF93DF93EC0160E08E81E9D781E001
:1006500090E0C3D661E08E81E3D781E090E0BDD623
:1006600060E08E81DDD784E690E0DF91CF91B5C662
:10067000CF92DF92EF92FF920F931F93CF93DF936E
:100680006C017C0187E0E80EF11CC0E0D0E0062F91
:1006900010E0B8010C2E02C0759567950A94E2F738
:1006A0006170F70181917F01BBD72196C430D105DC
:1006B00081F7C601DF91CF911F910F91FF90EF90CD
:1006C000DF90CF90BECFCF92DF92EF92FF920F9349
:1006D0001F93CF93DF936C017C0187E0E80EF11C40
:1006E000C0E0D0E0062F10E0B8010C2E02C07595D6
:1006F00067950A94E2F76170F70181917F0190D7C5
:100700002196C830D10581F7C601DF91CF911F91A5
:100710000F91FF90EF90DF90CF9093CF1F93CF93E7
:10072000DF93EC01162F642F8C817AD78D818F3F58
:1007300011F060E075D78F85612F84FF05C0CE0171
:10074000DF91CF911F91BFCF70E084E075956795E1
:100750008A95E1F7CE018CDF612FCE01DF91CF9139
:100760001F9186CF40E0DACF61E0FCDF80ED97E0BB
:1007700034C6FC01443008F043E08389481710F088
:100780004FEF480FDF01A40FB11D54969C91690FE4
:100790006068CF01E7CFFC016089262F2460208BA1
:1007A0006C60E0CFEF92FF920F931F93CF93DF9394
:1007B000EC01423018F08F8588608F874B8B1C8A44
:1007C00080E48D8B6E8B70E0605C7F4F6F8B22239B
:1007D00029F0413019F48F8584608F8761E08C8126
:1007E000E3D68D818F3F11F061E0DED661E08E812E
:1007F000DBD67E0187E0E80EF11C00E010E08F857B
:1008000084FD03C084E090E002C088E090E0081717
:10081000190744F461E0F70181917F01C5D60F5FAC
:100820001F4FEDCF80E593ECD8D560E08C81F8D6F2
:1008300060E08E81F5D68D818F3F11F060E0F0D6BB
:100840006F8564FD16C063E0CE0112DF84E991E19B
:10085000C4D563E0CE010CDF84E991E1BED563E04D
:10086000CE0106DF86E990E0B8D562E0CE0100DF78
:1008700011C06062CE0176DF84E991E1AED56F856B
:100880006062CE016FDF86E990E0A7D56F85606278
:10089000CE0168DF6F856062CE0164DF84E0888B03
:1008A000CE0179DFCE0160DF82E0898B66E0CE0188
:1008B000DF91CF911F910F91FF90EF9053CFCF9287
:1008C000EF920F93FC011382128289E792E09183E9
:1008D000808364838FEF8583468327830087E18647
:1008E000C2861386148615861686178620E041E098
:1008F00060E1CF010F91EF90CF9054CF41E00EDF38
:1009000081E090E00895BF92CF92DF92EF92FF9244
:100910000F931F93CF93DF93182FF62ED42EB22E62
:1009200088E190E092D2EC01CE2CE02E0B2D2D2D03
:100930004F2D612FC4DFCE01DF91CF911F910F9119
:10094000FF90EF90DF90CF90BF90089520E02ACFE6
:100950000BCF0FCFBAC282E493E0D9CC08950F93A6
:100960001F93CF93DF93182F062F86E190E0E7D6F1
:10097000EC011883098385E0E7E1F2E0DE011296DD
:1009800001900D928A95E1F785E0ECE1F2E0DE015D
:10099000179601900D928A95E1F785E0E1E2F2E089
:1009A000DE011C9601900D928A95E1F785E0E6E262
:1009B000F2E0DE01519601900D928A95E1F760E038
:1009C000812FF2D5CE01DF91CF911F910F91089524
:1009D0000F931F93CF93DF93CDB7DEB72A970FB650
:1009E000F894DEBF0FBECDBF8C010C5E1F4F25E01B
:1009F000FC013296DE01169601900D922A95E1F7E0
:100A0000FC014281538146175707DCF4248135816C
:100A100062177307B4F45F834E833987288785E0B4
:100A2000FE013696DE01119601900D928A95E1F74E
:100A300029813A814B815C816D8170E080E090E09A
:100A400004C005968017910791F62A960FB6F89480
:100A5000DEBF0FBECDBFDF91CF911F910F910895E3
:100A6000FC01918D228D892F90E0805C9F4F821B2D
:100A700091098F7399270895FC01918D828D9817A4
:100A800031F0828DE80FF11D858D90E008958FEF94
:100A90009FEF0895FC01918D828D981761F0828DF2
:100AA000DF01A80FB11D5D968C91928D9F5F9F73A2
:100AB000928F90E008958FEF9FEF089584EE96E077
:100AC000892B39F080E090E0892B19F07DD18111DC
:100AD00025C080E090E0892B41F080E090E0892BF8
:100AE00021F00E94000081111CC080E090E0892B61
:100AF00041F080E090E0892B21F00E9400008111FC
:100B000013C080E090E0892BA1F080E090E0892B79
:100B100081F00E94000081110AC008950E94000027
:100B2000D8CF0E940000E1CF0E940000EACF0C94D1
:100B300000000895FC01848DDF01A80FB11DA35AA8
:100B4000BF4F2C91848D90E001968F739927848FED
:100B5000A689B7892C93A089B1898C9180648C93E4
:100B6000938D848D981306C00288F389E02D8081CF
:100B70008F7D80830895EF92FF920F931F93CF9301
:100B8000DF93EC0181E0888F9B8D8C8D981305C0DD
:100B9000E889F989808185FD23C0F62E0B8D10E050
:100BA0000F5F1F4F0F731127E02E8C8DE8120BC0C3
:100BB0000FB607FCFACFE889F989808185FFF5CF68
:100BC000CE01B8DFF2CF8B8DFE01E80FF11DE35AA5
:100BD000FF4FF0820B8FEA89FB898081806207C01A
:100BE000EE89FF896083E889F98980818064808348
:100BF00081E090E0DF91CF911F910F91FF90EF90F6
:100C00000895CF93DF93EC01888D8823C1F0EA89A2
:100C1000FB89808185FD05C0A889B9898C9186FDF5
:100C20000EC00FB607FCF5CF808185FFF2CFA889F3
:100C3000B9898C9185FFEDCFCE017CDFE8CFDF91C4
:100C4000CF910895CF92DF92EF92FF921F93CF93AF
:100C5000DF93EC016A017B01122FE889F98982E0B8
:100C600080834115514E61057105A9F060E079E07E
:100C70008DE390E0A701960138D5DA01C90101970B
:100C8000A109B109B695A795979587959C0121155E
:100C900080E13807A0F0E889F989108260E874E8FB
:100CA0008EE190E0A701960120D5DA01C9010197F4
:100CB000A109B109B695A795979587959C01EC85F3
:100CC000FD853083EE85FF852083188EEC89FD89B4
:100CD0001083EA89FB89808180618083EA89FB89AE
:100CE000808188608083EA89FB8980818068808335
:100CF000EA89FB8980818F7D8083DF91CF911F916D
:100D0000FF90EF90DF90CF9008951F920F920FB653
:100D10000F9211240BB60F922F938F939F93EF9303
:100D2000FF93E091AC02F091AD028081E091B202BC
:100D3000F091B30282FD12C090818091B5028F5F65
:100D40008F732091B602821751F0E091B502F0E066
:100D5000E456FD4F958F8093B50201C08081FF91CD
:100D6000EF919F918F912F910F900BBE0F900FBE1F
:100D70000F901F9018951F920F920FB60F9211248B
:100D80000BB60F922F933F934F935F936F937F9385
:100D90008F939F93AF93BF93EF93FF938CE992E070
:100DA000C9DEFF91EF91BF91AF919F918F917F919C
:100DB0006F915F914F913F912F910F900BBE0F90CC
:100DC0000FBE0F901F9018958CE992E049DE21E04C
:100DD000892B09F420E0822F0895ECE9F2E01382D8
:100DE000128288EE93E0A0E0B0E084839583A6832E
:100DF000B78381E892E09183808385EC90E09587CA
:100E0000848784EC90E09787868780EC90E0918BD4
:100E1000808B81EC90E0938B828B82EC90E0958BC1
:100E2000848B86EC90E0978B868B118E128E138EBE
:100E3000148E08950895DCD2FDDF8DDDCEE5D5E07A
:100E40008DDD2097E9F33ADEFBCF79C4CF92DF92B4
:100E5000EF92FF920F931F93CF93DF936C017A0170
:100E60008B01C0E0D0E0CE15DF0581F0D8016D9197
:100E70008D01D601ED91FC910190F081E02DC6012C
:100E80001995892B11F02196EECF7E01C701DF91D4
:100E9000CF911F910F91FF90EF90DF90CF90089529
:100EA0006115710579F0FB0101900020E9F7319798
:100EB000AF01461B570BDC01ED91FC910280F381E1
:100EC000E02D199480E090E00895EACF6DE872E09B
:100ED000E7CF0F931F93CF93DF93EC01E1DF8C01FA
:100EE000CE01F4DF800F911FDF91CF911F910F9101
:100EF00008950895883008F06FC0A82FB0E0AA0FB9
:100F0000BB1FAA5FBD4F11967C936E9390E0FC01CE
:100F10003197E730F10598F58827EE58FF4F8F4F4E
:100F200006C4809169008C7F482B40936900E89A41
:100F3000089580916900837F440F551F440F551F0A
:100F4000482B40936900E99A0895809169008F7C4D
:100F500074E0440F551F7A95E1F7482B40936900E0
:100F6000EA9A0895809169008F7366E0440F551FD7
:100F70006A95E1F7482B40936900EB9A08958091B8
:100F80006A008C7F482B40936A00EC9A0895809108
:100F90006A00837F440F551F440F551F482B409311
:100FA0006A00ED9A089580916A008F7C24E0440FD6
:100FB000551F2A95E1F7482B40936A00EE9A089551
:100FC00080916A008F7396E0440F551F9A95E1F760
:100FD000482B40936A00EF9A08951F920F920FB624
:100FE0000F9211240BB60F922F933F934F935F9361
:100FF0006F937F938F939F93AF93BF93EF93FF93E1
:10100000E0910A02F0910B021995FF91EF91BF91C7
:10101000AF919F918F917F916F915F914F913F9190
:101020002F910F900BBE0F900FBE0F901F90189531
:101030001F920F920FB60F9211240BB60F922F939F
:101040003F934F935F936F937F938F939F93AF9350
:10105000BF93EF93FF93E0910C02F0910D0219956D
:10106000FF91EF91BF91AF919F918F917F916F9180
:101070005F914F913F912F910F900BBE0F900FBE3C
:101080000F901F9018951F920F920FB60F92112478
:101090000BB60F922F933F934F935F936F937F9372
:1010A0008F939F93AF93BF93EF93FF93E0910E02C3
:1010B000F0910F021995FF91EF91BF91AF919F9120
:1010C0008F917F916F915F914F913F912F910F90F1
:1010D0000BBE0F900FBE0F901F9018951F920F928E
:1010E0000FB60F9211240BB60F922F933F934F938D
:1010F0005F936F937F938F939F93AF93BF93EF9380
:10110000FF93E0911002F09111021995FF91EF9178
:10111000BF91AF919F918F917F916F915F914F910F
:101120003F912F910F900BBE0F900FBE0F901F900D
:1011300018951F920F920FB60F9211240BB60F92B3
:101140002F933F934F935F936F937F938F939F93CF
:10115000AF93BF93EF93FF93E0910602F0910702E4
:101160001995FF91EF91BF91AF919F918F917F91D1
:101170006F915F914F913F912F910F900BBE0F9008
:101180000FBE0F901F9018951F920F920FB60F92DF
:1011900011240BB60F922F933F934F935F936F934E
:1011A0007F938F939F93AF93BF93EF93FF93E091C0
:1011B0000802F09109021995FF91EF91BF91AF914B
:1011C0009F918F917F916F915F914F913F912F915F
:1011D0000F900BBE0F900FBE0F901F9018951F928F
:1011E0000F920FB60F9211240BB60F922F933F93CD
:1011F0004F935F936F937F938F939F93AF93BF931F
:10120000EF93FF93E0911202F09113021995FF9171
:10121000EF91BF91AF919F918F917F916F915F916E
:101220004F913F912F910F900BBE0F900FBE0F90DB
:101230001F9018951F920F920FB60F9211240BB6A4
:101240000F922F933F934F935F936F937F938F935F
:101250009F93AF93BF93EF93FF93E0911402F091AC
:1012600015021995FF91EF91BF91AF919F918F91C9
:101270007F916F915F914F913F912F910F900BBE96
:101280000F900FBE0F901F9018951F920F920FB6E0
:101290000F9211242F933F938F939F93AF93BF93FC
:1012A00080913A0390913B03A0913C03B0913D03A0
:1012B0003091390323E0230F2D3720F40196A11D2F
:1012C000B11D05C026E8230F0296A11DB11D209374
:1012D000390380933A0390933B03A0933C03B0936C
:1012E0003D0380913E0390913F03A0914003B09154
:1012F00041030196A11DB11D80933E0390933F03CE
:10130000A0934003B0934103BF91AF919F918F9100
:101310003F912F910F900FBE0F901F9018953FB7E0
:10132000F89480913E0390913F03A0914003B091C7
:10133000410326B5A89B05C02F3F19F00196A11DBA
:10134000B11D3FBFBA2FA92F982F8827820F911D5B
:10135000A11DB11DBC01CD0142E0660F771F881FA2
:10136000991F4A95D1F708958F929F92AF92BF929D
:10137000CF92DF92EF92FF926B017C01D0DF4B01A5
:101380005C01C114D104E104F104F1F0ADD1C7DF77
:10139000DC01CB0188199909AA09BB09883E934051
:1013A000A105B10570F321E0C21AD108E108F108E6
:1013B00088EE880E83E0981EA11CB11CC114D104D4
:1013C000E104F10421F7DDCFFF90EF90DF90CF90A3
:1013D000BF90AF909F908F9008958230910538F024
:1013E000880F991F880F991F05970197F1F70895A6
:1013F000789484B5826084BD84B5816084BD85B5F0
:10140000826085BD85B5816085BDEEE6F0E08081B6
:1014100081608083E1E8F0E01082808182608083D7
:10142000808181608083E0E8F0E08081816080835A
:10143000E1EBF0E0808184608083E0EBF0E080818C
:1014400081608083E1E9F0E0808182608083808137
:1014500081608083E0E9F0E0808181608083E1EA5F
:10146000F0E0808182608083808181608083E0EA17
:10147000F0E0808181608083E1E2F1E08081826040
:101480008083808181608083E0E2F1E080818160FF
:101490008083EAE7F0E080818460808380818260DD
:1014A00080838081816080838081806880831092C6
:1014B000C1000895863308F0865390917B00282F51
:1014C0002870977F922B90937B002091160290E4D6
:1014D000299F900111248770822B80937C0080913A
:1014E0007A00806480937A0080917A0086FDFCCF38
:1014F000809178002091790090E0922B089590E0FF
:10150000FC013197E231F10508F04DC08827E7581A
:10151000FF4F8F4F0CC1809180008F7703C0809167
:1015200080008F7D80938000089580918000877F68
:10153000F9CF84B58F7702C084B58F7D84BD0895BF
:101540008091B0008F7703C08091B0008F7D809331
:10155000B0000895809190008F7707C0809190002F
:101560008F7D03C080919000877F809390000895C5
:101570008091A0008F7707C08091A0008F7D03C06D
:101580008091A000877F8093A00008958091200122
:101590008F7707C0809120018F7D03C0809120014B
:1015A000877F809320010895CF93DF9390E0FC0123
:1015B000E45AFE4F2491FC01EE55FE4F849188239E
:1015C00061F190E0880F991FFC01EE5FFD4FC5911E
:1015D000D491FC01E851FE4FA591B491611109C06D
:1015E0009FB7F8948881209582238883EC912E23DD
:1015F0000BC0623061F49FB7F8948881322F309528
:1016000083238883EC912E2B2C939FBF06C08FB72A
:10161000F894E8812E2B28838FBFDF91CF91089516
:101620001F93CF93DF93282F30E0F901EA5EFE4F3E
:101630008491F901E45AFE4FD491F901EE55FE4F21
:10164000C491CC23B9F0162F811159DFEC2FF0E0B3
:10165000EE0FFF1FE851FE4FA591B4919FB7F8948C
:10166000111104C08C91D095D82302C0EC91DE2BCF
:10167000DC939FBFDF91CF911F910895BF92CF92CE
:10168000DF92EF92FF920F931F93CF93DF93C82EB9
:10169000D62EB42EC7E0D0E0022F10E087E0E82E6F
:1016A000F12CB11005C0C7018C1B9D0BB80102C005
:1016B000B8018C2F02C0759567958A95E2F7617025
:1016C0008C2DAEDF61E08D2DABDF60E08D2DA8DFCE
:1016D000219738F7DF91CF911F910F91FF90EF90F5
:1016E000DF90CF90BF9008950895A1E21A2EAA1B13
:1016F000BB1BFD010DC0AA1FBB1FEE1FFF1FA217C2
:10170000B307E407F50720F0A21BB30BE40BF50BBE
:10171000661F771F881F991F1A9469F76095709547
:10172000809590959B01AC01BD01CF010895EE0F0E
:10173000FF1F881F8BBF0790F691E02D19940F9320
:101740001F93CF93DF938230910510F482E090E0F5
:10175000E0915203F091530320E030E0A0E0B0E0CC
:10176000309719F14081518102811381481759073F
:10177000C8F08417950769F4109731F012960C930E
:10178000129713961C9327C0009352031093530390
:1017900022C02115310519F04217530718F49A0198
:1017A000BD01EF01DF01F801DBCF21153105F9F0B3
:1017B000281B390B2430310580F48A819B81611507
:1017C000710521F0FB019383828304C0909353033E
:1017D00080935203FE01329644C0FE01E20FF31FD4
:1017E0008193919322503109398328833AC0209103
:1017F000500330915103232B41F420910202309188
:101800000302309351032093500320910002309142
:1018100001022115310541F42DB73EB74091040274
:1018200050910502241B350BE0915003F0915103B8
:10183000E217F307A0F42E1B3F0B2817390778F0A7
:10184000AC014E5F5F4F2417350748F04E0F5F1F06
:1018500050935103409350038193919302C0E0E071
:10186000F0E0CF01DF91CF911F910F910895CF93B9
:10187000DF93009709F481C0FC0132971382128232
:10188000A0915203B0915303109781F420813181CC
:10189000820F931F2091500330915103281739076D
:1018A00051F5F0935103E093500367C0ED0120E040
:1018B00030E0CE17DF0740F44A815B819E0141157D
:1018C0005105F1F0EA01F5CFD383C2834081518104
:1018D000840F951FC817D90759F488819981840FFF
:1018E000951F0296918380838A819B819383828353
:1018F0002115310529F4F0935303E09352033DC0C1
:10190000E901FB83EA8349915991C40FD51FEC1774
:10191000FD0761F480819181840F951F0296E90192
:1019200099838883828193819B838A83E0E0F0E0BE
:1019300012968D919C911397009719F0FD01DC018F
:10194000F7CF8D919C9111979D012E5F3F4F820F94
:10195000931F20915003309151032817390769F4E0
:10196000309729F4109253031092520302C013824D
:101970001282B0935103A0935003DF91CF91089549
:04198000F894FFCF09
:10198400000054032000790779077907790779075C
:1019940079077907790701B402BE02013E034803BF
:1019A400029A03A40303C903D30304496E69746947
:1019B400616C697A696E6720636F6E74726F6C6CA8
:1019C40065722E2E2E00524320436F6E74726F6C1C
:1019D4006C6572007665722E20312E30005465736A
:1019E40074696E67204C4544732E2E2E0057454C67
:1019F400434F4D4500000000007E04260700000010
:101A040000BB05260730054A053C0501060D0A0002
:0C1A14006E616E00696E66006F76660001
:00000001FF
