S01400005243436F6E74726F6C6C65722E7372656357
S11300000DC10000D9C4000002C500002BC50000CA
S113001054C500007DC50000A6C50000CFC5000082
S1130020F8C500001BC1000019C1000017C1000081
S113003015C1000013C1000011C100000FC1000070
S11300400DC100000BC1000009C1000007C1000080
S113005005C1000003C1000001C1000005C6000085
S1130060FDC00000FBC00000F9C00000F7C00000A4
S1130070F5C00000F3C00000F1C00000EFC00000B4
S1130080EDC00000EBC00000E9C00000E7C00000C4
S1130090E5C00000E3C00000E1C00000DFC00000D4
S11300A0DDC00000DBC00000D9C00000D7C00000E4
S11300B0D5C00000D3C00000D1C00000CFC00000F4
S11300C0CDC00000CBC00000C9C00000C7C0000004
S11300D0C5C00000C3C00000C1C00000BFC0000014
S11300E0BDC00000B604800488049404A104C204C2
S11300F0CF0488078B077A077E078407C2078F0718
S1130100930799079D07A107A707AB07AF07C20786
S1130110B507B907BD0700000A0B02090C0D0E084C
S113012007030401000000000000000000000000BC
S113013000000000000000000000000000000000BB
S11301400000121110000000000000000000000078
S11301500000000000000000000000000102102068
S113016020080810204010204080020102010804E9
S1130170020101020408102040808040201008047D
S113018002018004020180402010080402010804D6
S1130190020101020408102040800102040810201A
S11301A04080050505050705080808080202020243
S11301B00A0A0808040404040101010101010101FF
S11301C00303030303030303040707070C0C0C0CCA
S11301D00C0C0C0C020202020606060606060606B3
S11301E00B0B0B0B0B0B0B0B000022002500280044
S11301F02B002E003100340002010000050108012B
S11302000B0100002100240027002A002D003000EB
S1130210330001010000040107010A0111241FBE7B
S1130220CFEFD1E2DEBFCDBF00E00CBF12E0A0E013
S1130230B2E0EEE1F3E100E00BBF02C007900D92E3
S1130240A236B107D9F722E0A2E6B2E001C01D92BE
S1130250A537B207E1F7F0D20C948D09D1CE0F93F4
S11302601F93CF93DF9300D01F921F92CDB7DEB7B9
S11302700BE612E0D801ED91FC9180810AD6BC0115
S1130280F801808191818FD20F900F900F900F9081
S11302900F90DF91CF911F910F910895EF920F93DB
S11302A0CF93DF93EC0186E190E016D7998388839E
S11302B021E0FC01208322E021834DD28AE090E0FA
S11302C00BD79B838A8325E330E0FC0131832083B1
S11302D021E330E03383228323E330E03583248336
S11302E02FE230E0318720876AD0E881F98161E02C
S11302F0818149D6E881F98143E050E06FE271E001
S11303008181E7D287E0E82E06E025E044E069E059
S113031088E0F5D19D838C8342E060E113D240E014
S113032060E08C819D8111D26BE272E08C819D81B1
S11303300DD241E060E08C819D8107D269E372E0D7
S11303408C819D8103D260ED77E080E090E0FBD466
S11303508C819D81F9D140E060E08C819D81F5D153
S11303608A819B8149D0EA81FB8160E0808547D600
S113037062E472E08C819D81E9D18A819B8142D0C3
S11303808C819D81E1D162E572E08C819D81DF9158
S1130390CF910F91EF90DAC11F93CF93DF93EC01CC
S11303A0162F60E08C812BD6212F41E06A81888151
S11303B054D661E08C81DF91CF911F9120C6CF93F9
S11303C0DF93EC0161E08885DED561E0888517D68E
S11303D061E08A81D8D561E08881D5D561E08C81DE
S11303E0D2D560E08A810BD660E0888108D660E0CF
S11303F08C81DF91CF9103C6FC011782168260E0E5
S113040070E0CACFCF93DF93EC0181E090E09F834B
S11304108E836E817F81CE01613871055CF4BCDF0F
S113042068EC70E080E090E08ED48E819F81880F2C
S1130430991FEDCFDF91CF91DFCFCF93DF93EC0105
S113044060E08E81DCD581E090E0B6D461E08E81FD
S1130450D6D581E090E0B0D460E08E81D0D584E63A
S113046090E0DF91CF91A8C4CF92DF92EF92FF92F8
S11304700F931F93CF93DF936C017C0187E0E80E09
S1130480F11CC0E0D0E0062F10E0B8010C2E02C031
S1130490759567950A94E2F76170F70181917F0180
S11304A0AED52196C430D10581F7C601DF91CF9135
S11304B01F910F91FF90EF90DF90CF90BECFCF921E
S11304C0DF92EF92FF920F931F93CF93DF936C0110
S11304D07C0187E0E80EF11CC0E0D0E0062F10E0BC
S11304E0B8010C2E02C0759567950A94E2F7617005
S11304F0F70181917F0183D52196C830D10581F719
S1130500C601DF91CF911F910F91FF90EF90DF9083
S1130510CF9093CF1F93CF93DF93EC01162F642FCB
S11305208C816DD58D818F3F11F060E068D58F850A
S1130530612F84FF05C0CE01DF91CF911F91BFCF02
S113054070E084E0759567958A95E1F7CE018CDFBC
S1130550612FCE01DF91CF911F9186CF40E0DACF9A
S113056061E0FCDF80ED97E027C4FC01443008F033
S113057043E08389481710F04FEF480FDF01A40FC1
S1130580B11D54969C91690F6068CF01E7CFFC01BF
S11305906089262F2460208B6C60E0CFEF92FF925D
S11305A00F931F93CF93DF93EC01423018F08F85A4
S11305B088608F874B8B1C8A80E48D8B6E8B70E0F8
S11305C0605C7F4F6F8B222329F0413019F48F85B3
S11305D084608F8761E08C81D6D48D818F3F11F048
S11305E061E0D1D461E08E81CED47E0187E0E80E53
S11305F0F11C00E010E08F8584FD03C084E090E0EE
S113060002C088E090E00817190744F461E0F7019C
S113061081917F01B8D40F5F1F4FEDCF80E593EC3C
S1130620CBD360E08C81EBD460E08E81E8D48D8103
S11306308F3F11F060E0E3D46F8564FD16C063E082
S1130640CE0112DF84E991E1B7D363E0CE010CDF80
S113065084E991E1B1D363E0CE0106DF86E990E05D
S1130660ABD362E0CE0100DF11C06062CE0176DF61
S113067084E991E1A1D36F856062CE016FDF86E9E1
S113068090E09AD36F856062CE0168DF6F85606207
S1130690CE0164DF84E0888BCE0179DFCE0160DF98
S11306A082E0898B66E0CE01DF91CF911F910F919B
S11306B0FF90EF9053CFCF92EF920F93FC011382F0
S11306C012828EE592E09183808364838FEF858329
S11306D0468327830087E186C2861386148615869F
S11306E01686178620E041E060E1CF010F91EF907C
S11306F0CF9054CF41E00EDF81E090E00895BF92A7
S1130700CF92DF92EF92FF920F931F93CF93DF93D9
S1130710182FF62ED42EB22E88E190E098D0EC015A
S1130720CE2CE02E0B2D2D2D4F2D612FC4DFCE01AD
S1130730DF91CF911F910F91FF90EF90DF90CF90B9
S1130740BF90089520E02ACF0BCF0FCFC0C08BE617
S113075092E0A4CD089525E0E7E1F2E0DC011296F1
S113076001900D922A95E1F725E0ECE1F2E0DC013D
S1130770179601900D922A95E1F725E0E1E2F2E067
S1130780DC011C9601900D922A95E1F725E0E6E242
S1130790F2E0DC01519601900D922A95E1F760E0B8
S11307A0FC018081F0C30F931F93CF93DF93CDB7E8
S11307B0DEB72A970FB6F894DEBF0FBECDBF8C010B
S11307C00C5E1F4F25E0FC013296DE011696019067
S11307D00D922A95E1F7FC01428153814617570790
S11307E0DCF42481358162177307B4F45F834E838C
S11307F03987288785E0FE013696DE01119601903F
S11308000D928A95E1F729813A814B815C816D8152
S113081070E080E090E004C005968017910791F69F
S11308202A960FB6F894DEBF0FBECDBFDF91CF91ED
S11308301F910F9108950895CAD2FDDF88DFC0E0AB
S1130840D0E088DF2097E9F30E940000FACF44C487
S1130850CF92DF92EF92FF920F931F93CF93DF9388
S11308606C017A018B01C0E0D0E0CE15DF0581F088
S1130870D8016D918D01D601ED91FC910190F0812B
S1130880E02DC6011995892B11F02196EECF7E013A
S1130890C701DF91CF911F910F91FF90EF90DF90EF
S11308A0CF9008956115710579F0FB010190002046
S11308B0E9F73197AF01461B570BDC01ED91FC9131
S11308C00280F381E02D199480E090E00895EACF4E
S11308D00895883008F06FC0A82FB0E0AA0FBB1F9E
S11308E0AA5FBD4F11967C936E9390E0FC01319703
S11308F0E730F10598F58827EE58FF4F8F4FE4C392
S1130900809169008C7F482B40936900E89A089590
S113091080916900837F440F551F440F551F482B56
S113092040936900E99A0895809169008F7C74E08E
S1130930440F551F7A95E1F7482B40936900EA9AD2
S11309400895809169008F7366E0440F551F6A957E
S1130950E1F7482B40936900EB9A089580916A006F
S11309608C7F482B40936A00EC9A089580916A002A
S1130970837F440F551F440F551F482B40936A0033
S1130980ED9A089580916A008F7C24E0440F551FEE
S11309902A95E1F7482B40936A00EE9A08958091D6
S11309A06A008F7396E0440F551F9A95E1F7482B20
S11309B040936A00EF9A08951F920F920FB60F9218
S11309C011240BB60F922F933F934F935F936F9322
S11309D07F938F939F93AF93BF93EF93FF93E09194
S11309E00A02F0910B021995FF91EF91BF91AF911B
S11309F09F918F917F916F915F914F913F912F9133
S1130A000F900BBE0F900FBE0F901F9018951F9262
S1130A100F920FB60F9211240BB60F922F933F93A0
S1130A204F935F936F937F938F939F93AF93BF93F2
S1130A30EF93FF93E0910C02F0910D021995FF9151
S1130A40EF91BF91AF919F918F917F916F915F9142
S1130A504F913F912F910F900BBE0F900FBE0F90AF
S1130A601F9018951F920F920FB60F9211240BB678
S1130A700F922F933F934F935F936F937F938F9333
S1130A809F93AF93BF93EF93FF93E0910E02F09186
S1130A900F021995FF91EF91BF91AF919F918F91A3
S1130AA07F916F915F914F913F912F910F900BBE6A
S1130AB00F900FBE0F901F9018951F920F920FB6B4
S1130AC00F9211240BB60F922F933F934F935F9382
S1130AD06F937F938F939F93AF93BF93EF93FF9302
S1130AE0E0911002F09111021995FF91EF91BF91DD
S1130AF0AF919F918F917F916F915F914F913F91B2
S1130B002F910F900BBE0F900FBE0F901F90189552
S1130B101F920F920FB60F9211240BB60F922F93C0
S1130B203F934F935F936F937F938F939F93AF9371
S1130B30BF93EF93FF93E0910602F091070219959A
S1130B40FF91EF91BF91AF919F918F917F916F91A1
S1130B505F914F913F912F910F900BBE0F900FBE5D
S1130B600F901F9018951F920F920FB60F92112499
S1130B700BB60F922F933F934F935F936F937F9393
S1130B808F939F93AF93BF93EF93FF93E0910802EA
S1130B90F09109021995FF91EF91BF91AF919F9147
S1130BA08F917F916F915F914F913F912F910F9012
S1130BB00BBE0F900FBE0F901F9018951F920F92AF
S1130BC00FB60F9211240BB60F922F933F934F93AE
S1130BD05F936F937F938F939F93AF93BF93EF93A1
S1130BE0FF93E0911202F09113021995FF91EF9196
S1130BF0BF91AF919F918F917F916F915F914F9131
S1130C003F912F910F900BBE0F900FBE0F901F902E
S1130C1018951F920F920FB60F9211240BB60F92D4
S1130C202F933F934F935F936F937F938F939F93F0
S1130C30AF93BF93EF93FF93E0911402F0911502E9
S1130C401995FF91EF91BF91AF919F918F917F91F2
S1130C506F915F914F913F912F910F900BBE0F9029
S1130C600FBE0F901F9018951F920F920FB60F9200
S1130C7011242F933F938F939F93AF93BF938091AE
S1130C80630290916402A0916502B0916602309172
S1130C90620223E0230F2D3720F40196A11DB11D1C
S1130CA005C026E8230F0296A11DB11D2093620200
S1130CB08093630290936402A0936502B0936602EA
S1130CC08091670290916802A0916902B0916A02D2
S1130CD00196A11DB11D8093670290936802A093B1
S1130CE06902B0936A02BF91AF919F918F913F9136
S1130CF02F910F900FBE0F901F9018953FB7F89447
S1130D008091670290916802A0916902B0916A0291
S1130D1026B5A89B05C02F3F19F00196A11DB11D52
S1130D203FBFBA2FA92F982F8827820F911DA11D8D
S1130D30B11DBC01CD0142E0660F771F881F991FCA
S1130D404A95D1F708958F929F92AF92BF92CF9216
S1130D50DF92EF92FF926B017C01D0DF4B015C01CB
S1130D60C114D104E104F104F1F0ADD1C7DFDC0119
S1130D70CB0188199909AA09BB09883E9340A105AA
S1130D80B10570F321E0C21AD108E108F10888EE38
S1130D90880E83E0981EA11CB11CC114D104E10487
S1130DA0F10421F7DDCFFF90EF90DF90CF90BF905B
S1130DB0AF909F908F9008958230910538F0880FFE
S1130DC0991F880F991F05970197F1F70895789453
S1130DD084B5826084BD84B5816084BD85B582603C
S1130DE085BD85B5816085BDEEE6F0E080818160DA
S1130DF08083E1E8F0E010828081826080838081DA
S1130E0081608083E0E8F0E0808181608083E1EBB1
S1130E10F0E0808184608083E0EBF0E08081816099
S1130E208083E1E9F0E08081826080838081816059
S1130E308083E0E9F0E0808181608083E1EAF0E092
S1130E40808182608083808181608083E0EAF0E039
S1130E50808181608083E1E2F1E08081826080832F
S1130E60808181608083E0E2F1E080818160808321
S1130E70EAE7F0E0808184608083808182608083FF
S1130E808081816080838081806880831092C1002A
S1130E900895863308F0865390917B00282F28709C
S1130EA0977F922B90937B002091160290E4299FC8
S1130EB0900111248770822B80937C0080917A00AA
S1130EC0806480937A0080917A0086FDFCCF8091C3
S1130ED078002091790090E0922B089590E0FC0135
S1130EE03197E231F10508F04DC08827E758FF4FEC
S1130EF08F4FEAC0809180008F7703C0809180007B
S1130F008F7D80938000089580918000877FF9CF42
S1130F1084B58F7702C084B58F7D84BD0895809198
S1130F20B0008F7703C08091B0008F7D8093B000B4
S1130F300895809190008F7707C0809190008F7DF5
S1130F4003C080919000877F8093900008958091E2
S1130F50A0008F7707C08091A0008F7D03C080918F
S1130F60A000877F8093A0000895809120018F774F
S1130F7007C0809120018F7D03C080912001877F6D
S1130F80809320010895CF93DF9390E0FC01E45A0D
S1130F90FE4F2491FC01EE55FE4F8491882361F1AC
S1130FA090E0880F991FFC01EE5FFD4FC591D4912D
S1130FB0FC01E851FE4FA591B491611109C09FB79E
S1130FC0F8948881209582238883EC912E230BC08A
S1130FD0623061F49FB7F8948881322F309583236F
S1130FE08883EC912E2B2C939FBF06C08FB7F89467
S1130FF0E8812E2B28838FBFDF91CF9108951F9313
S1131000CF93DF93282F30E0F901EA5EFE4F8491FD
S1131010F901E45AFE4FD491F901EE55FE4FC49103
S1131020CC23B9F0162F811159DFEC2FF0E0EE0F2D
S1131030FF1FE851FE4FA591B4919FB7F894111189
S113104004C08C91D095D82302C0EC91DE2BDC93A4
S11310509FBFDF91CF911F910895BF92CF92DF92EE
S1131060EF92FF920F931F93CF93DF93C82ED62E48
S1131070B42EC7E0D0E0022F10E087E0E82EF12C78
S1131080B11005C0C7018C1B9D0BB80102C0B8018B
S11310908C2F02C0759567958A95E2F761708C2D47
S11310A0AEDF61E08D2DABDF60E08D2DA8DF2197F1
S11310B038F7DF91CF911F910F91FF90EF90DF9060
S11310C0CF90BF9008950895EE0FFF1F881F8BBF28
S11310D00790F691E02D19940F931F93CF93DF930C
S11310E08230910510F482E090E0E0917302F09177
S11310F0740220E030E0A0E0B0E0309719F14081C4
S113110051810281138148175907C8F08417950744
S113111069F4109731F012960C93129713961C935E
S113112027C0009373021093740222C02115310565
S113113019F04217530718F49A01BD01EF01DF01BA
S1131140F801DBCF21153105F9F0281B390B2430C8
S1131150310580F48A819B816115710521F0FB01C1
S11311609383828304C09093740280937302FE017C
S1131170329644C0FE01E20FF31F819391932250F3
S11311803109398328833AC0209171023091720267
S1131190232B41F420910202309103023093720216
S11311A02093710220910002309101022115310532
S11311B041F42DB73EB74091040250910502241B1F
S11311C0350BE0917102F0917202E217F307A0F47B
S11311D02E1B3F0B2817390778F0AC014E5F5F4F89
S11311E02417350748F04E0F5F1F50937202409347
S11311F071028193919302C0E0E0F0E0CF01DF91AE
S1131200CF911F910F910895CF93DF93009709F425
S113121081C0FC01329713821282A0917302B091B3
S11312207402109781F420813181820F931F2091E1
S11312307102309172022817390751F5F093720246
S1131240E093710267C0ED0120E030E0CE17DF07C4
S113125040F44A815B819E0141155105F1F0EA0198
S1131260F5CFD383C28340815181840F951FC81762
S1131270D90759F488819981840F951F0296918327
S113128080838A819B81938382832115310529F48C
S1131290F0937402E09373023DC0E901FB83EA8397
S11312A049915991C40FD51FEC17FD0761F4808152
S11312B09181840F951F0296E90199838883828125
S11312C093819B838A83E0E0F0E012968D919C9158
S11312D01397009719F0FD01DC01F7CF8D919C91D4
S11312E011979D012E5F3F4F820F931F2091710232
S11312F0309172022817390769F4309729F4109253
S113130074021092730202C013821282B0937202AA
S1111310A0937102DF91CF910895F894FFCF5E
S113131E0000750220006804680468046804680408
S113132E68046804680401B402BE02013E03480363
S113133E029A03A40303C903D30304524320436F45
S113134E6E74726F6C6C6572007665722E20312E1F
S113135E300054657374696E67204C4544732E2EA9
S113136E2E0057454C434F4D4500000000007A03B4
S105137E28043D
S9030000FC
